:100000000C9447000C945C000C945C000C945C0015
:100010000C945C000C945C000C945C000C945C00F0
:100020000C945C000C945C000C945C000C945C00E0
:100030000C945C000C945C000C945C000C945C00D0
:100040000C945C000C945C000C945C000C945C00C0
:100050000C945C000C945C000C945C000C945C00B0
:100060000C945C000C945C008603B603B603920308
:10007000B00397039C03A103B603A603AB03B60327
:10008000B603B603B603B303B603B6038B0311245A
:100090001FBECFEFD8E0DEBFCDBF11E0A0E0B1E0E2
:1000A000E0EBFBE002C005900D92AE31B107D9F74D
:1000B0000E944E030C94D6050C940000E0910001C0
:1000C000F0910101158287E6848381818B7F818392
:1000D0008281866082838281877F828382818F7C16
:1000E00082838181886181830895E0910001F0918C
:1000F0000101908195FFFDCF86830895E091000175
:10010000F0910101808187FFFDCF86810895E09104
:100110001401F09115018081816080830895E09140
:100120001601F09117018081816080830895E0912C
:100130001601F091170180818E7F808308952F92A0
:100140003F924F925F926F927F928F929F92AF9267
:10015000BF92CF92DF92EF92FF920F931F93CF93B4
:10016000DF93CDB7DEB764970FB6F894DEBF0FBE4E
:10017000CDBF883091050CF071C18B01FC01EE0FF1
:10018000FF1FEE5FFE4F80819181A0E0B0E0898B80
:100190009A8BAB8BBC8B29893A894B895C8960E44B
:1001A00072E48FE090E00E94CE032D873E874F8758
:1001B000588B8D859E85AF85B889B695A7959795FF
:1001C000879589879A87AB87BC87CD84DE84EF8447
:1001D000F88828EE33E0D8010E94F603A7019601C3
:1001E0000E94CE032D833E834F83588719821A8243
:1001F0001B821C8200E911E049815A816B817C815C
:100200008D819E81AF81B885481759076A077B07A2
:1002100008F024C10E948F0069857A858B859C85B2
:100220000E94B2044B015C012BEA3AEA4AEA50E42C
:100230000E9469056B017C0120E030E040E85FE34B
:100240000E940C0487FD6DC020E030E040E850E4DF
:10025000C501B4010E9469051B012C0120E03FEF9C
:100260004FE757E40E94640518160CF042C020E0E6
:1002700030E04AE754E4C501B4010E9411044B0187
:100280005C0120E030E04AE755E40E9469056B011B
:100290007C0120E030E040E85FE30E940C0487FD31
:1002A00022C020E03FEF4FE757E4C701B6010E94AC
:1002B000640518169CF420E030E040E251E4C501EA
:1002C000B4010E9469050E9483046115710559F10A
:1002D000C8010197F1F761507109F7CFC701B60165
:1002E0000E94830402C061E070E0CB010197F1F746
:1002F0001AC020E030E04FE753E4C701B6010E9486
:100300006405181644F4C201B1010E948304CB01B4
:100310000197F1F70BC0C701B6010E948304762E46
:1003200002C077247394872D8A95F1F70E94970075
:1003300069857A858B859C850E94B2044B015C019E
:100340002BEA3AEA4AEA50E40E9469056B017C0113
:1003500020E030E040E85FE30E940C0487FD6DC0C0
:1003600020E030E040E850E4C501B4010E94690596
:100370001B012C0120E03FEF4FE757E40E9464058A
:1003800018160CF042C020E030E04AE754E4C50102
:10039000B4010E9411044B015C0120E030E04AE707
:1003A00055E40E9469056B017C0120E030E040E8E3
:1003B0005FE30E940C0487FD22C020E03FEF4FE77F
:1003C00057E4C701B6010E94640518169CF420E0AA
:1003D00030E040E251E4C501B4010E9469050E9489
:1003E00083046115710559F1C8010197F1F7615056
:1003F0007109F7CFC701B6010E94830402C061E012
:1004000070E0CB010197F1F71AC020E030E04FE730
:1004100053E4C701B6010E946405181644F4C201F2
:10042000B1010E948304CB010197F1F70BC0C70112
:10043000B6010E948304662E02C066246394862D52
:100440008A95F1F789819A81AB81BC810196A11DC2
:10045000B11D89839A83AB83BC83CECE64960FB6DD
:10046000F894DEBF0FBECDBFDF91CF911F910F91EA
:10047000FF90EF90DF90CF90BF90AF909F908F90C4
:100480007F906F905F904F903F902F9008954F9284
:100490005F926F927F928F929F92AF92BF92CF9214
:1004A000DF92EF92FF921F93CF93DF9300D000D0A3
:1004B000CDB7DEB728EE33E0DC010E94F603698396
:1004C0007A838B839C8369817A818B819C810E9452
:1004D000B2044B015C012BEA3AEA4AEA50E40E947A
:1004E00069056B017C0120E030E040E85FE30E9499
:1004F0000C0487FD6FC020E030E040E850E4C50107
:10050000B4010E9469052B013C0120E03FEF4FE759
:1005100057E40E94640518160CF044C020E030E057
:100520004AE754E4C501B4010E9411044B015C0187
:1005300020E030E04AE755E40E9469056B017C0148
:1005400020E030E040E85FE30E940C0487FD24C017
:1005500020E03FEF4FE757E4C701B6010E94640572
:100560001816ACF420E030E040E251E4C501B401DB
:100570000E9469050E94830420E931E0611571053C
:1005800051F1C9010197F1F761507109F7CFC70126
:10059000B6010E94830402C061E070E0CB010197C4
:1005A000F1F719C020E030E04FE753E4C701B6018E
:1005B0000E946405181644F4C301B2010E9483042A
:1005C000CB010197F1F709C0C701B6010E9483046E
:1005D000162F01C011E01A95F1F70F900F900F90B0
:1005E0000F90DF91CF911F91FF90EF90DF90CF9010
:1005F000BF90AF909F908F907F906F905F904F9043
:100600000895CF93DF9300D000D0CDB7DEB7198225
:100610001A821B821C8224EC31E0AC01429FC00193
:10062000439F900D529F900D1124092E000CAA0B90
:10063000BB0B49815A816B817C81481759076A0736
:100640007B0768F449815A816B817C814F5F5F4FE2
:100650006F4F7F4F49835A836B837C83EACF0F9020
:100660000F900F900F90DF91CF910895E0911A01B4
:10067000F0911B018081806280830895E0911C01CC
:10068000F0911D018081806280830895E0911C01BA
:10069000F0911D0180818F7D80830895CF93DF933A
:1006A0001F92CDB7DEB70E945E000E9487000E94B5
:1006B000360383E70E94750084E70E94750081E697
:1006C0000E94750082E70E94750084E70E94750011
:1006D0008DE00E9475008AE00E94750001E00E9492
:1006E0007E00182F8CE70E9475001982812F012E41
:1006F000000C990BAA0BBB0BFC01E156F109E3318D
:10070000F105A0F5EC5CFF4F0C94F00364EF71E091
:1007100080E090E004C064EF71E081E090E00E942E
:100720009F0025C064EF71E082E090E0F8CF64EFB5
:1007300071E083E090E0F3CF64EF71E084E090E05B
:10074000EECF64EF71E085E090E0E9CF64EF71E017
:1007500086E090E0E4CF64EF71E087E090E0DFCFE7
:100760000E943E0304C00E94460301C009838981A0
:10077000882369F0812F0E9475008DE00E9475002A
:100780008AE00E94750088EC90E00E9447028CE7A6
:100790000E947500113709F0A2CFFFCFA1E21A2EF7
:1007A000AA1BBB1BFD010DC0AA1FBB1FEE1FFF1F15
:1007B000A217B307E407F50720F0A21BB30BE40B65
:1007C000F50B661F771F881F991F1A9469F76095AC
:1007D0007095809590959B01AC01BD01CF01089566
:1007E000EE0FFF1F0590F491E02D09940E94FD0388
:1007F000B7FF0895821B930B0895A29FB001B39F8A
:10080000C001A39F700D811D1124911DB29F700D19
:10081000811D1124911D08950E94EF0408F481E0C8
:1008200008950E9425040C942A050E94230558F07F
:100830000E941C0540F029F45F3F29F00C94130539
:1008400051110C945E050C9419050E943B0568F348
:100850009923B1F3552391F3951B550BBB27AA2779
:1008600062177307840738F09F5F5F4F220F331FB3
:10087000441FAA1FA9F335D00E2E3AF0E0E832D07B
:1008800091505040E695001CCAF72BD0FE2F29D07E
:10089000660F771F881FBB1F261737074807AB0750
:1008A000B0E809F0BB0B802DBF01FF2793585F4FC5
:1008B0003AF09E3F510578F00C9413050C945E05B8
:1008C0005F3FE4F3983ED4F3869577956795B795A7
:1008D000F7959F5FC9F7880F911D9695879597F9B2
:1008E0000895E1E0660F771F881FBB1F621773072B
:1008F0008407BA0720F0621B730B840BBA0BEE1F40
:1009000088F7E09508950E94430588F09F5798F076
:10091000B92F9927B751B0F0E1F0660F771F881F04
:10092000991F1AF0BA95C9F714C0B13091F00E941E
:100930005D05B1E008950C945D05672F782F882739
:10094000B85F39F0B93FCCF3869577956795B39545
:10095000D9F73EF490958095709561957F4F8F4FB4
:100960009F4F0895E89409C097FB3EF490958095B9
:10097000709561957F4F8F4F9F4F9923A9F0F92F65
:1009800096E9BB279395F695879577956795B795E3
:10099000F111F8CFFAF4BB0F11F460FF1BC06F5FC9
:1009A0007F4F8F4F9F4F16C0882311F096E911C0DB
:1009B000772321F09EE8872F762F05C0662371F0FC
:1009C00096E8862F70E060E02AF09A95660F771F10
:1009D000881FDAF7880F9695879597F90895990FEC
:1009E0000008550FAA0BE0E8FEEF16161706E807F9
:1009F000F907C0F012161306E407F50798F0621B1A
:100A0000730B840B950B39F40A2661F0232B242BEE
:100A1000252B21F408950A2609F4A140A6958FEF0D
:100A2000811D811D089597F99F6780E870E060E05F
:100A300008959FEF80EC089500240A941616170677
:100A400018060906089500240A94121613061406BF
:100A500005060895092E0394000C11F4882352F022
:100A6000BB0F40F4BF2B11F460FF04C06F5F7F4FDA
:100A70008F4F9F4F089557FD9058440F551F59F0C1
:100A80005F3F71F04795880F97FB991F61F09F3F7B
:100A900079F087950895121613061406551FF2CFA4
:100AA0004695F1DF08C0161617061806991FF1CFF4
:100AB00086957105610508940895E894BB2766271B
:100AC0007727CB0197F908950E94EF0408F48FEF80
:100AD00008950E947C050C942A050E941C0538F09C
:100AE0000E94230520F0952311F00C9413050C941B
:100AF000190511240C945E050E943B0570F3959F27
:100B0000C1F3950F50E0551F629FF001729FBB2704
:100B1000F00DB11D639FAA27F00DB11DAA1F649FA0
:100B20006627B00DA11D661F829F2227B00DA11D53
:100B3000621F739FB00DA11D621F839FA00D611DD9
:100B4000221F749F3327A00D611D231F849F600DFA
:100B5000211D822F762F6A2F11249F5750409AF023
:100B6000F1F088234AF0EE0FFF1FBB1F661F771FAF
:100B7000881F91505040A9F79E3F510580F00C947A
:100B800013050C945E055F3FE4F3983ED4F386951D
:100B900077956795B795F795E7959F5FC1F7FE2B1A
:100BA000880F911D9695879597F90895F894FFCF32
:100BB000C000060126014A015E018801B801EE016C
:0E0BC0000C0223002400250023002400250041
:00000001FF
