:100000000C9434000C9451000C9451000C94510049
:100010000C9451000C9451000C9451000C9451001C
:100020000C9451000C9451000C9451000C9451000C
:100030000C9451000C9451000C9451000C945100FC
:100040000C9451000C9451000C9468000C945100D5
:100050000C9451000C9451000C9451000C945100DC
:100060000C9451000C94510011241FBECFEFD8E026
:10007000DEBFCDBF11E0A0E0B1E0E6E5F2E002C0F6
:1000800005900D92A230B107D9F721E0A2E0B1E0CE
:1000900001C01D92A434B207E1F70E941F010C9425
:1000A00029010C940000E0910001F09101011582FA
:1000B00087E6848386E0828388E181830895E091E6
:1000C0000001F09101018181806881837894089515
:1000D0001F920F920FB60F9211242F933F938F937D
:1000E0009F93EF93FF93E0910001F091010126812E
:1000F0008091030190E001968F739927309102015E
:10010000381741F0E0910301F0E0EC5FFE4F2083EF
:1001100080930301FF91EF919F918F913F912F91D8
:100120000F900FBE0F901F901895E0910001F09175
:100130000101908195FFFDCF86830895CF93DF93D2
:10014000EC018991811103C0DF91CF9108950E9444
:100150009500F7CFE0910001F0910101808187FFC8
:10016000FDCF868108959091030180910201981737
:10017000D1F3F894E0910201F0E0EC5FFE4F808152
:100180002091020130E02F5F3F4F2F7333272093E0
:10019000020178940895CF93DF9300D000D0CDB7BB
:1001A000DEB769837A838B839C83862F0E949500B8
:1001B0008A810E9495008B810E9495008C810E940B
:1001C00095000F900F900F900F90DF91CF910895B1
:1001D000CF93DF9300D000D0CDB7DEB70E94B3003D
:1001E00089830E94B3008A830E94B3008B830E949C
:1001F000B3008C8369817A818B819C810F900F90F1
:100200000F900F90DF91CF910895CF93C92F0E9447
:1002100095008C2FCF910C949500CF93DF9300D055
:10022000CDB7DEB70E94B30089830E94B3008A83F2
:1002300089819A810F900F90DF91CF9108950E944C
:1002400053000E945F000E940D0101960E9405016B
:06025000FACFF894FFCF85
:02025600C000E6
:00000001FF
