:100000000C9434000C9449000C9449000C94490061
:100010000C9449000C9449000C9449000C9449003C
:100020000C9449000C9449000C9449000C9449002C
:100030000C9449000C9449000C9449000C9449001C
:100040000C9449000C9449000C9449000C9449000C
:100050000C9449000C9449000C9449000C944900FC
:100060000C9449000C94490011241FBECFEFD8E036
:10007000DEBFCDBF11E0A0E0B1E0EAE4F1E002C0F4
:1000800005900D92A630B107D9F70E9494000C9408
:10009000A3000C940000CF93DF9300D000D0CDB725
:1000A000DEB719821A821B821C8224EC31E0AC017B
:1000B000429FC001439F900D529F900D1124092E25
:1000C000000CAA0BBB0B49815A816B817C814817BC
:1000D00059076A077B0768F449815A816B817C81E3
:1000E0004F5F5F4F6F4F7F4F49835A836B837C8392
:1000F000EACF0F900F900F900F90DF91CF9108955E
:10010000E0910201F091030180E280830895E09183
:100110000401F091050180E280830895E0910401DB
:10012000F0910501108208950E94800089E190E01D
:100130000E944B000E94870089E190E00E944B00E2
:0A0140000E948700F3CFF894FFCF70
:06014A0023002400250043
:00000001FF
