:100000000C9434000C9449000C9449000C94490061
:100010000C9449000C9449000C9449000C9449003C
:100020000C9449000C9449000C9449000C9449002C
:100030000C9449000C9449000C9449000C9449001C
:100040000C9449000C9449000C9449000C9449000C
:100050000C9449000C9449000C9449000C944900FC
:100060000C9449000C94490011241FBECFEFD8E036
:10007000DEBFCDBF11E0A0E0B1E0E2E4F2E002C0FB
:1000800005900D92A230B107D9F70E9499000C9407
:100090001F010C940000CF93DF93EC019C0150E012
:1000A00040E060E878E381E090E00E94D80050E012
:1000B00040E04217530718F0DF91CF910895289A36
:1000C00090E080E08C179D0749F4289870E060E08C
:1000D0008617970749F44F5F5F4FEBCF65E06A954E
:1000E000F1F700000196EECFE5E0EA95F1F70000A8
:1000F0006F5F7F4FEDCFE0910001F091010115821C
:1001000087E6848388E1818386E082830895E09195
:100110000001F0910101908195FFFDCF8683089544
:10012000E0910001F0910101808187FFFDCF868180
:1001300008950E947B00209A0E949000EFE9E80F4A
:10014000E33108F031C00E2E000CFF0BE655FF4FD7
:100150000C94F700BD00D400D400C500D400C80042
:10016000CB00CE00D400D100D400D400D400D40001
:10017000D400D400D400D400C2008CEB93E00E94E1
:100180004B00DACF86EF92E0FACF8DE792E0F7CF1F
:100190008EED91E0F4CF8BE791E0F1CF8EE391E02B
:1001A000EECF8EEE90E0EBCF813709F0C5CFFFCFD9
:1001B000052E97FB1EF400940E94EF0057FD07D018
:1001C0000E94FD0007FC03D04EF40C94EF00509504
:1001D0004095309521953F4F4F4F5F4F0895909533
:1001E0008095709561957F4F8F4F9F4F0895EE0FCB
:1001F000FF1F0590F491E02D0994A1E21A2EAA1B8D
:10020000BB1BFD010DC0AA1FBB1FEE1FFF1FA217C6
:10021000B307E407F50720F0A21BB30BE40BF50BC3
:10022000661F771F881F991F1A9469F7609570954C
:10023000809590959B01AC01BD01CF010895F89484
:02024000FFCFEE
:02024200C000FA
:00000001FF
