:100000000C9434000C9449000C9449000C94490061
:100010000C9449000C9449000C9449000C9449003C
:100020000C9449000C9449000C9449000C9449002C
:100030000C9449000C9449000C9449000C9449001C
:100040000C9449000C9449000C9449000C9449000C
:100050000C9449000C9449000C9449000C944900FC
:100060000C9449000C94490011241FBECFEFD8E036
:10007000DEBFCDBF11E0A0E0B1E0E4E2F1E002C0FC
:1000800005900D92A630B107D9F70E9485000C9417
:1000900090000C940000CF93DF9300D000D0CDB738
:1000A000DEB719821A821B821C8289819A81AB81F8
:1000B000BC818035934CA105B10538F00F900F90AD
:1000C0000F900F90DF91CF91089589819A81AB8134
:1000D000BC810196A11DB11D89839A83AB83BC832A
:1000E000E4CFE0910201F091030180E28083089562
:1000F000E0910401F091050180E280830895E09190
:100100000401F0910501108208950E9471000E947F
:100110004B000E9478000E944B000E947F00F7CFA6
:04012000F894FFCF81
:0601240023002400250069
:00000001FF
