:100000000C94B1000C94CE000C94CE000C94CE0055
:100010000C94CE000C94CE000C94CE000C94CE0028
:100020000C94CE000C94CE000C94CE000C94CE0018
:100030000C94CE000C94CE000C94CE000C94CE0008
:100040000C94CE000C94CE000C94CE000C94CE00F8
:100050000C94CE000C94CE000C94CE000C94CE00E8
:100060000C94CE000C94CE0000407A10F35A00A0FD
:10007000724E18090010A5D4E80000E87648170071
:1000800000E40B54020000CA9A3B000000E1F505B1
:10009000000080969800000040420F000000A086FB
:1000A00001000000102700000000E803000000002D
:1000B0006400000000000A000000000001000000D1
:1000C00000002C76D888DC674F0823DFC1DFAE59EB
:1000D000E1B1B796E5E3E453C63AE651997696E87E
:1000E000E6C28426EB898C9B62ED407C6FFCEFBC02
:1000F0009C9F40F2BAA56FA5F490055A2AF75C932D
:100100006B6CF9676DC11BFCE0E40D47FEF520E662
:10011000B500D0ED902E0300943577050080841E45
:10012000080000204E0A000000C80C333333330FA0
:10013000986E12831141EF8D2114893BE65516CF3D
:10014000FEE6DB18D1844B381BF77C1D901DA4BB49
:10015000E424203284725E228100C9F124ECA1E5FE
:100160003D2711241FBECFEFD8E0DEBFCDBF11E089
:10017000A0E0B1E0E8E5FEE002C005900D92A631F6
:10018000B107D9F721E0A6E1B1E001C01D92AA377D
:10019000B207E1F70E94F3020C942A070C940000C6
:1001A000E0910401F0910501808184608083E091F9
:1001B0000401F09105018081877F8083E091020135
:1001C000F091030180818B7F80838AE08A95F1F72B
:1001D000E0910201F091030180818460808385E3D6
:1001E0008A95F1F7E0910201F091030180818B7F04
:1001F0008083E0910001F091010180E69AEE208178
:1002000023FF0CC090E080E035E0208123FD0BC08F
:100210006AE370E00E942703CB010895019779F704
:100220008FEF9FEF08950196232F2A95F1F78133E1
:1002300025E7920751F7F4CFE0910601F09107010D
:10024000808180780895E0910601F0910701158280
:1002500087E6848386E0828388E181830895E09144
:100260000601F0910701908195FFFDCF86830895E7
:10027000E0910601F0910701808187FFFDCF868123
:100280000895CF93DF93EC018991882319F00E94A0
:100290002F01FACFDF91CF910895AC0181E090E07A
:1002A00020E030E0261737075CF4FC01E49FC00132
:1002B000E59F900DF49F900D11242F5F3F4FF2CFDB
:1002C0000895CF92DF92EF92FF92CF93DF936C016C
:1002D000EB0161E070E080E090E0E0E0F0E00D2C08
:1002E000000CEE08FF08EC17FD0744F49B01AC017D
:1002F000C701B6010E9417033196F5CFDF91CF9168
:10030000FF90EF90DF90CF900895CF92DF92EF9221
:10031000FF921F93CF93DF93CDB7DEB727970FB62A
:10032000F894DEBF0FBECDBF9C01AB014150510917
:10033000EE24E394F12C80E090E0EAE08417950746
:1003400044F4D701EA9F7001EB9FF00C1124019651
:10035000F5CF37FD03C0462F10E008C08DE289833A
:1003600031952195310941E0460F11E08AE0C82E10
:10037000D12C812F012E000C990BE1E0F0E0EC0F65
:10038000FD1FE80FF91F141774F4C901B7010E948B
:100390003B03605D60839C01C701B6010E943B0383
:1003A0007B011F5FE6CF1082CE0101960E944101C2
:1003B00027960FB6F894DEBF0FBECDBFDF91CF9169
:1003C0001F91FF90EF90DF90CF9008952F923F9272
:1003D0004F925F926F927F928F929F92AF92BF9255
:1003E000CF92DF92EF92FF920F931F93CF93DF9301
:1003F000CDB7DEB72C970FB6F894DEBF0FBECDBFDA
:100400006B877C87782E692E8A015A0181E0A81AB1
:10041000B108C12CD12C7601C394E0E0F0E0EA15DC
:10042000FB0554F4AAE0B0E0A70196010E946E0318
:100430006B017C013196F3CFFE0131965F014F01D4
:100440008AE0282E312C412C512CC4018A199B0999
:1004500080179107CCF46B857C85872D962DA7019D
:1004600096010E944F03205DF40121934F016B8799
:100470007C87782E692EC701B601A20191010E94E6
:100480004F0369017A01E1CF17FF02C000E010E0DD
:10049000F501E00FF11F1082C5010E9441012C9669
:1004A0000FB6F894DEBF0FBECDBFDF91CF911F9185
:1004B0000F91FF90EF90DF90CF90BF90AF909F9003
:1004C0008F907F906F905F904F903F902F90089506
:1004D000BF92CF92DF92EF92FF920F931F93CF9331
:1004E000DF93CDB7DEB72A970FB6F894DEBF0FBE05
:1004F000CDBF20E030E048EC52E40E9409040E94A5
:10050000AA03362F272FFE0131967E0184E0E80EE4
:10051000F11C04E610E0BE2E4F2F8AE0C82ED12C2D
:10052000832F922FB8010E943B03605D6193382FA7
:10053000292FC801B6010E943B038B01EE15FF0570
:1005400079F71C828B2D942F0E9441012A960FB6B9
:10055000F894DEBF0FBECDBFDF91CF911F910F91F9
:10056000FF90EF90DF90CF90BF9008950F931F936F
:10057000CF93DF93CDB7DEB7C055D1090FB6F8944E
:10058000DEBF0FBECDBF8E010F5F1F4F0E949E04C6
:10059000C8010E944101C05BDF4F0FB6F894DEBF77
:1005A0000FBECDBFDF91CF911F910F910895CF93D3
:1005B000DF930E943801C6E1D1E09E01265131400F
:1005C0008D3041F08A3031F0882321F089930E94E8
:1005D0003801F3CFF901EA5EFE4F108286E191E027
:1005E000DF91CF9108950E94230188E091E00E945D
:1005F000410164E070E088E090E00E948501C0E97C
:10060000D1E088E091E00E9441010E94D00064E0C6
:1006100070E00E94850183E191E00E94410180E148
:1006200097E2FE013197F1F70197D9F7EACFDB01A5
:100630008F939F930E946E03BF91AF91A29F800DF5
:10064000911DA39F900DB29F900D11240895AA1B98
:10065000BB1B51E107C0AA1FBB1FA617B70710F0AD
:10066000A61BB70B881F991F5A95A9F780959095DF
:10067000BC01CD01089597FB072E16F4009407D016
:1006800077FD09D00E94270307FC05D03EF4909522
:1006900081959F4F0895709561957F4F0895052E20
:1006A00097FB1EF400940E94660357FD07D00E943A
:1006B000790307FC03D04EF40C94660350954095E3
:1006C000309521953F4F4F4F5F4F089590958095FE
:1006D000709561957F4F8F4F9F4F08950E949B03A8
:1006E000A59F900DB49F900DA49F800D911D112486
:1006F0000895A1E21A2EAA1BBB1BFD010DC0AA1F63
:10070000BB1FEE1FFF1FA217B307E407F50720F07A
:10071000A21BB30BE40BF50B661F771F881F991FF5
:100720001A9469F760957095809590959B01AC013E
:10073000BD01CF010895A29FB001B39FC001A39F47
:10074000700D811D1124911DB29F700D811D11240A
:10075000911D08950E94B1036894B1110C94030493
:1007600008950E94E80388F09F5798F0B92F9927C1
:10077000B751B0F0E1F0660F771F881F991F1AF08C
:10078000BA95C9F714C0B13091F00E940204B1E0EB
:1007900008950C940204672F782F8827B85F39F0EA
:1007A000B93FCCF3869577956795B395D9F73EF425
:1007B00090958095709561957F4F8F4F9F4F0895CD
:1007C00057FD9058440F551F59F05F3F71F0479502
:1007D000880F97FB991F61F09F3F79F087950895E7
:1007E000121613061406551FF2CF4695F1DF08C006
:1007F000161617061806991FF1CF86957105610523
:1008000008940895E894BB2766277727CB0197F9CA
:1008100008950E941C040C948D040E947F0438F0FB
:100820000E94860420F0952311F00C9476040C9419
:100830007C0411240C9403040E94E00370F3959F40
:10084000C1F3950F50E0551F629FF001729FBB27C7
:10085000F00DB11D639FAA27F00DB11DAA1F649F63
:100860006627B00DA11D661F829F2227B00DA11D16
:10087000621F739FB00DA11D621F839FA00D611D9C
:10088000221F749F3327A00D611D231F849F600DBD
:10089000211D822F762F6A2F11249F5750409AF0E6
:1008A000F1F088234AF0EE0FFF1FBB1F661F771F72
:1008B000881F91505040A9F79E3F510580F00C943D
:1008C00076040C9403045F3FE4F3983ED4F38695DA
:1008D00077956795B795F795E7959F5FC1F7FE2BDD
:1008E000880F911D9695879597F9089597F99F67B9
:1008F00080E870E060E008959FEF80EC08950024A8
:100900000A941616170618060906089500240A9474
:1009100012161306140605060895092E0394000CFA
:1009200011F4882352F0BB0F40F4BF2B11F460FF89
:1009300004C06F5F7F4F8F4F9F4F0895EF920F93CB
:100940001F93CF93DF93E80134E047FD34E1042E99
:10095000000C550B57FF03C0519541955109E32EEB
:10096000022F242FAE010E94BC04CE01DF91CF9153
:100970001F910F91EF900895A9E0B0E0E2ECF4E050
:100980000C94F9066A01F22EB02E102FFBE3AF2E65
:10099000A01608F41BE31F5F012F27E0AE014F5F95
:1009A0005F4F0E941B06BC018981982F997091307E
:1009B00009F43FC09BE2E1FC04C09E2D9170E0FC75
:1009C0003AC05E2D5071E82FE87083FF46C084E086
:1009D000911101C083E0EF2DE81B8F1508F0E0E0D6
:1009E000D6018E2F20E2552351F1992329F0D6010B
:1009F0009C93C60101966C0196012D5F3F4FE2FE6C
:100A000024C08EE4D6018C9391E411969C931197A7
:100A100012968C93D9018E2F90E281111BC0E20FA8
:100A2000F32FF11D10828EEF9FEF2996ECE00C94CE
:100A300015079DE2C6CF90E2C4CF2D93815081115E
:100A4000FCCFCE0ED11CE0E0D0CF8EE6D6018C9349
:100A500091E6DBCF9D938150E0CF482F447082FF19
:100A60003DC084E0911101C083E08F1510F4EF2D9B
:100A7000E81BD6018E2F20E2552309F1992329F096
:100A8000D6019C93C60101966C0196012D5F3F4FE4
:100A9000E2FE1BC089E4D6018C938EE411968C9300
:100AA000119786E412968C93D9018E2F90E28823B9
:100AB00009F4B5CF9D938150FACF2D9381508111C8
:100AC000FCCFCE0ED11CE0E0D9CF89E6D6018C93C5
:100AD0008EE611968C93119786E6E4CF9B0177FF03
:100AE00002C030E020E0A1E0B0E0911102C0B0E02F
:100AF000A0E0F9013196AE0FBF1F8B2C912CBB20CB
:100B000009F461C05401EFEFAE1ABE0AAA0DBB1D75
:100B1000FA161B0619F014F04F2D4A1B511188C00C
:100B2000E3FC59C07601A42FB0E2A1114FC0C40E5E
:100B3000D11C992309F45BC040E0D6011196F6015F
:100B400090836D01552309F448C0012F060F9A8147
:100B5000582F507184FF03C0913309F401501016CF
:100B60000CF047C0093008F008E0EEE2FE2E5B0111
:100B7000A01AB10885019194819491082F3F320702
:100B800029F4D601FC92F60131966F0162177307C2
:100B900094F1021713077CF5DB01A21BB30BAA2407
:100BA000A394B12CAC0EBD1EAA0DBB1D11968C9149
:100BB00021503109D601119628153905F4F0F601B6
:100BC00080836D01DBCFB12CA12CA0CFF701B193B5
:100BD0007F01A150AACF9111B0CFD601942F50E33D
:100BE00002C05D9391509111FCCFC40ED11C40E026
:100BF000ACCF01E0BACF80E3DBCF6217730731F4EB
:100C0000963388F4953311F4552369F0F601808307
:100C1000FD01842F90E2811108C0A40FB11D1C9228
:100C200090E080E002CF81E3F1CF91938150F3CF48
:100C3000911183CF8ACF283008F027E03327DA01DB
:100C4000990F311D87FD916000966105710539F49A
:100C500032602E5F3D9330E32A95E1F708959F3F80
:100C600030F080387105610509F03C5F3C5F3D93D1
:100C7000913008F08068911DDF93CF931F930F93FD
:100C8000FF92EF92192F987F9695E92F969596955A
:100C9000E90FFF27EE53FF4F99273327EE24FF2458
:100CA000A701E70105900894079428F4360FE71E82
:100CB000F81E491F511D660F771F881F991F069444
:100CC000A1F70590079428F4E70EF81E491F561F58
:100CD000C11D770F881F991F661F0694A1F7059005
:100CE000079428F4F80E491F561FC71FD11D880FFF
:100CF000991F661F771F0694A1F70590079420F4AB
:100D0000490F561FC71FD81F990F661F771F881FCF
:100D10000694A9F784911095177041F0D695C79560
:100D200057954795F794E7941A95C1F7E8E6F0E0F0
:100D300068941590159135916591959105907FE294
:100D40007395E118F10A430B560BC90BD009C0F794
:100D5000E10CF11E431F561FC91FD01D7EF47033D6
:100D600011F48A95E6CFE894015030F0080F0AF4A8
:100D70000027021708F4202F2395022F7A3328F03A
:100D800079E37D932A95E9F710C07D932A9589F63A
:100D9000069497956795379517951794E118F10A7A
:100DA000430B560BC90BD00998F023957E91739590
:100DB0007A3308F070E37C932013B8F77E9170616A
:100DC0007D9330F0839571E37D9370E32A95E1F78D
:100DD0001124EF90FF900F911F91CF91DF919927F0
:100DE00087FD909508952F923F924F925F926F9258
:100DF0007F928F929F92AF92BF92CF92DF92EF92AB
:100E0000FF920F931F93CF93DF93CDB7DEB7CA1B2B
:100E1000DB0B0FB6F894DEBF0FBECDBF09942A8856
:100E2000398848885F846E847D848C849B84AA84FE
:100E3000B984C884DF80EE80FD800C811B81AA818B
:100E4000B981CE0FD11D0FB6F894DEBF0FBECDBF56
:080E5000ED010895F894FFCFB5
:100E5800260028002700C000484F4C41204D554E21
:060E6800444F200D0A00BA
:00000001FF
