:100000000C9434000C9449000C9449000C94490061
:100010000C9449000C9449000C9449000C9449003C
:100020000C9449000C9449000C9449000C9449002C
:100030000C9449000C9449000C9449000C9449001C
:100040000C9449000C9449000C9449000C9449000C
:100050000C9449000C9449000C9449000C944900FC
:100060000C9449000C94490011241FBECFEFD8E036
:10007000DEBFCDBF11E0A0E0B1E0E0ECF0E002C0F7
:1000800005900D92A230B107D9F70E944F000C9451
:100090005E000C940000089590E080E008950E94B6
:1000A0004B0082E00E944C002FEF89E698E121503E
:1000B00080409040E1F700C00000F3CFF894FFCFFC
:0200C0007800C6
:00000001FF
