:100000000C9434000C9449000C9449000C94490061
:100010000C9449000C9449000C9449000C9449003C
:100020000C9449000C9449000C9449000C9449002C
:100030000C9449000C9449000C9449000C9449001C
:100040000C9449000C9449000C9449000C9449000C
:100050000C9449000C9449000C9449000C944900FC
:100060000C9449000C94490011241FBECFEFD8E036
:10007000DEBFCDBF11E0A0E0B1E0E8E5F1E002C0F5
:1000800005900D92A230B107D9F70E9469000C9437
:10009000AA000C940000E0910001F091010115828A
:1000A00087E6848388E1818386E082830895E091F6
:1000B0000001F0910101908195FFFDCF86830895A5
:1000C000E0910001F0910101808187FFFDCF8681E1
:1000D00008950E944B008AB1837C8AB98BB18C63EE
:1000E0008BB94A990CC081E60E9457002FEF82E538
:1000F00097E0215080409040E1F700C000004B990C
:100100000CC084E60E9457002FEF82E597E0215053
:1001100080409040E1F700C000004C990CC087E798
:100120000E9457002FEF82E597E0215080409040D9
:10013000E1F700C000004D99D4CF83E70E9457003B
:100140002FEF82E597E0215080409040E1F700C01A
:080150000000C7CFF894FFCFB7
:02015800C000E5
:00000001FF
