:100000000C9434000C9451000C9451000C94510049
:100010000C9451000C9451000C9451000C9402016A
:100020000C9451000C9451000C9451000C9451000C
:100030000C9451000C9451000C9451000C945100FC
:100040000C9451000C9451000C9451000C945100EC
:100050000C9451000C9451000C9451000C945100DC
:100060000C9451000C94510011241FBECFEFD8E026
:10007000DEBFCDBF11E0A0E0B1E0EEEEF4E002C0E3
:1000800005900D92A630B107D9F721E0A6E0B1E0C6
:1000900001C01D92AE30B207E1F70E9441010C94FD
:1000A00075020C940000E0910001F09101011582AD
:1000B00087E6848388E181838EE082830895E091DE
:1000C0000001F0910101908195FFFDCF8683089595
:1000D000E0910001F0910101808187FFFDCF8681D1
:1000E00008950C94D700AF92BF92CF92DF92EF9217
:1000F000FF920F931F930E94F100E4E6AE2EB12C05
:10010000C12CD12CE12CF12C00E010E00E948601E2
:10011000822F1F910F91FF90EF90DF90CF90BF90B3
:10012000AF900895AF92BF92CF92DF92EF92FF927D
:100130000F931F930E94F100E4E6AE2EB12CC12C68
:10014000D12CE12CF12C00E010E00E948801822FDC
:100150006CE30E9478011F910F91FF90EF90DF9068
:10016000CF90BF90AF900895AF92BF92CF92DF92A1
:10017000EF92FF920F931F930E94F100E4E6AE2EE0
:10018000B12CC12CD12CE12CF12C00E010E00E940C
:100190008801FCE3AF2E0E948601822F1F910F91F0
:1001A000FF90EF90DF90CF90BF90AF900895E091D7
:1001B0000401F091050180818E7F808380818260BF
:1001C00080838181877F81838181876081838BE9BF
:1001D0008383E0910201F09103018081826080833A
:1001E0000895209106013091070140910801509136
:1001F000090160910A0170910B0180910C019091AD
:100200000D0108951F920F920FB60F9211242F9394
:100210003F934F935F936F937F938F939F93AF938E
:100220002091060130910701409108015091090188
:1002300060910A0170910B0180910C0190910D0168
:10024000A1E00E945D0220930601309307014093D4
:1002500008015093090160930A0170930B01809388
:100260000C0190930D01AF919F918F917F916F91B0
:100270005F914F913F912F910F900FBE0F901F9064
:10028000189578940E9453000E947100CAE08DE096
:100290000E945F000E9492006C2F0E947801D92F6B
:1002A000805D0E945F0080E38D0F0E945F008AE303
:1002B0000E945F000E94B4006C2F0E947801D92F29
:1002C000805D0E945F0080E38D0F0E945F008AE3E3
:1002D0000E945F000E9473006C2F0E947801D92F4A
:1002E000805D0E945F0080E38D0F0E945F00CFCF92
:1002F00087FB082E062687FD819567FD61950E9484
:1003000069020EF4919507FC81950895689401C0E7
:10031000E894F92FF12B12F00C94BA01A0E0B0E0B0
:10032000E4E9F1E00C942C02092E059422F40E94D9
:100330001602112392F4F0E80F26FFEFE094F094F8
:1003400000951095B094C094D094A194BF0ACF0AA0
:10035000DF0AEF0AFF0A0F0B1F0B0E94C50107FC03
:100360000E941602CDB7DEB7ECE00C944802689408
:1003700001C0E8948F929F92CF93DF930E94C501B2
:10038000DF91CF919F908F90089588249924F40154
:10039000E401B0E49F93AA279A158B049C04ED0511
:1003A000FE05CF05D007A10798F4AD2FDC2FCF2F86
:1003B000FE2FE92D982C892E982F872F762F652FC9
:1003C000542F432F322F2227B85031F7BF9127C027
:1003D0001B2EBF91BB27220F331F441F551F661FC3
:1003E000771F881F991F881C991CEE1FFF1FCC1FA9
:1003F000DD1FAA1FBB1F8A149B04EC05FD05CE055B
:10040000DF05A007B10748F08A189B08EC09FD0931
:10041000CE09DF09A00BB10B21601A94E1F62EF48E
:100420009401AF01BE01CD01000C08956095709557
:100430008095909530954095509521953F4F4F4F21
:100440005F4F6F4F7F4F8F4F9F4F08952F923F9277
:100450004F925F926F927F928F929F92AF92BF92D4
:10046000CF92DF92EF92FF920F931F93CF93DF9380
:10047000CDB7DEB7CA1BDB0B0FB6F894DEBF0FBEDD
:10048000CDBF09942A88398848885F846E847D842A
:100490008C849B84AA84B984C884DF80EE80FD802C
:1004A0000C811B81AA81B981CE0FD11D0FB6F894A2
:1004B000DEBF0FBECDBFED0108950024A7FD00945F
:1004C0002A0F301D401D501D601D701D801D901D88
:1004D0000895991B79E004C0991F961708F0961BA0
:0E04E000881F7A95C9F780950895F894FFCF8C
:0604EE00C0007000B00028
:00000001FF
