:100000000C9434000C9451000C9451000C94510049
:100010000C9451000C9451000C9451000C9451001C
:100020000C9451000C9451000C9451000C9451000C
:100030000C9451000C9451000C9451000C945100FC
:100040000C9451000C9451000C9451000C945100EC
:100050000C9451000C9451000C9451000C945100DC
:100060000C9451000C94510011241FBECFEFD8E026
:10007000DEBFCDBF11E0A0E0B1E0E4E8F2E002C0F5
:1000800005900D92AE30B107D9F721E0AEE0B1E0B6
:1000900001C01D92A831B207E1F70E9403010C9440
:1000A00040010C940000E0910601F09107011582D7
:1000B00087E6848381818B7F8183828186608283CE
:1000C0008281877F828382818F7C82838181886124
:1000D00081830895E0910601F0910701908195FFD9
:1000E000FDCF86830895E0910601F091070180819C
:1000F00087FFFDCF868108958EE080930E01E09109
:100100000A01F0910B018081817F8083E0910C01D5
:10011000F0910D01908180910E01892B8083E2E1A5
:10012000F1E0118210821382128215821482EFE0B4
:10013000F1E081E08083818382830895CF93DF9310
:1001400000D000D0CDB7DEB78BE490E019821A82E0
:100150001B821C8249815A816B817C81443C5140C5
:100160006105710568F449815A816B817C814F5F1B
:100170005F4F6F4F7F4F49835A836B837C83EACFF6
:10018000019721F70F900F900F900F90DF91CF9173
:100190000895E0910801F0910901408150E09C012F
:1001A0002F5F3F4F02C0559547952A95E2F79C0176
:1001B000220F331FFC01E15FFE4F40FF0AC0D9014F
:1001C000AE5EBE4F1D921C9281E0808380E090E085
:1001D00008958081882311F0108209C0F901EE5E34
:1001E000FE4F80819181855B9F4F91838083F901D0
:1001F000EE5EFE4F81E090E0208131812B303105B1
:1002000008F480E00895CF93DF9300D01F92CDB71C
:10021000DEB70E9453000E947C0019821A821B8262
:100220000E949E00CE0101966C0180E0E82E81E0E4
:10023000F82E00E010E0C8010E94C900B82EF601B7
:100240008081811106C0F1E0BF120EC0F7018181EB
:1002500006C0813049F4B11007C0F70180810E94C7
:100260006A008DE00E946A00F601B1926F010F5F93
:100270001F4FF2E0EF0EF11C03301105E1F6D0CF75
:04028000F894FFCF20
:0E028400614164446A4AC00023002400250042
:00000001FF
