:100000000C9434000C9449000C9449000C94490061
:100010000C9449000C9449000C9449000C9449003C
:100020000C9449000C9449000C9449000C9449002C
:100030000C9449000C9449000C9449000C9449001C
:100040000C9449000C9449000C9449000C9449000C
:100050000C9449000C9449000C9449000C944900FC
:100060000C9449000C94490011241FBECFEFD8E036
:10007000DEBFCDBF11E0A0E0B1E0E6E3F1E002C0F9
:1000800005900D92A230B107D9F70E9474000C942C
:1000900099000C940000E0910001F091010115829B
:1000A00087E6848381818B7F8183828186608283DE
:1000B0008281877F828382818F7C82838181886134
:1000C00081830895E0910001F0910101908195FFF5
:1000D000FDCF86830895E0910001F09101018081B8
:1000E00087FFFDCF868108950E944B0083E70E9421
:1000F000620084E70E94620081E60E94620082E75B
:100100000E94620084E70E9462008DE00E9462000B
:100110008AE00E9462000E946B00C82F0E94620069
:100120008DE00E9462008AE00E946200C13799F768
:06013000FFCFF894FFCFA1
:02013600C00007
:00000001FF
